:0400000300000000F9
:020000020000FC
:02000000D80026
:020000020000FC
:02000200FFFFFE
:020000020000FC
:04000400FFFFFFFFFC
:020000020000FC
:02000800F50CF5
:020000020000FC
:10000A007B5DCFBFA8D6E43FDCEF1AA192C031D006
:04001A0021409705E5
:020000020000FC
:04001E004B14F1137B
:020000020000FC
:0A002200FFFFFFFFFFFFFFFFFFFFDE
:020000020000FC
:08002C008F1491149314951434
:020000020000FC
:02003400511663
:020000020000FC
:02003600FFFFCA
:020000020000FC
:02003800881529
:020000020000FC
:02003A00250D92
:020000020000FC
:06003C00FFFFFFFFFFFFC4
:020000020000FC
:06004200971499140F153C
:020000020000FC
:1000480000000000000000D5D4ADFE3D000FCAB08E
:10005800B73E005F5D000F3F002C3E05383F003281
:10006800A4AAAABE005CDA9019BF000158FE31BFED
:020000020000FC
:1000780000AAAAAA2ABE00CCCCCC4CBD00C3300C26
:0E008800C3BC00E3388E63BC004F09F214BC09
:020000020000FC
:1000960000AAAAAAAA3E00999999193F00B66DDB53
:0E00A600363F00C7711C473F00175D74513F85
:020000020000FC
:0C00B400FFFFFFFFFFFFFFFFFFFFFFFF4C
:020000020000FC
:0400C000EFFFE884E2
:020000020000FC
:0A00C4000000000000000000000032
:020000020000FC
:0A00CE00FFFFFFFFFFFFFFFFFFFF32
:020000020000FC
:1000D80061CF5100718C7109FECBF8D4FEFC073357
:1000E80000367EF7FCE0D10053C0F693935820FE0B
:1000F800DFF94100369C1734CCF6EF05118B99A730
:10010800A517444E18DFF5360200347EF7EF0A4192
:1001180000118B410F1199A7A517440200DFF03693
:1001280000EF30CCF6EF04CC0000A747DFF9410F11
:10013800367EF7307EF7EF0511CC0000A747DFF8D1
:100148004100360200347EF7EF05118B99A7A517F9
:10015800440200DFF5367EF7307EF7EF04CC00006E
:10016800A747DFF9F6BF84EFE6BF82EF309AEFBF0B
:1001780098EFFC583200F6FC8ED600EFFE61DD7178
:100188007BFABEF0ADD8BEF200AEF661CDD7C36142
:10019800DD717BFABEF0ADD8BEF200DBF6FFADDC58
:1001A800BEF000AEF6BDD8AEF40312ADDABEF20072
:1001B800AEF661CD03BDDAC2D7C3F33174D9088373
:1001C800C1F626D8BDD8C031750683C312F623C23E
:1001D800FDE30193DF0312F623C2D7440000DD26B6
:1001E80061DD717BFACFE80080BEF6F6BEF4BEF2A0
:1001F800ADD8BEF0CFE800818FE8003103FAAEF049
:10020800F5E80061CDD7B1D7C3F33174D90883C1FC
:10021800F626D8BDD8C0317505C312F623C2FD3104
:100228000293DF0312F623C2D7440000DD2761DD05
:10023800717BFACFE80080BEF6F6BEF4BEF2ADD808
:10024800BEF0CFE800818FE8003103FAAFE000F597
:10025800E80061CDD7ADD8D7C3F33174DB0F83C1C4
:10026800F626D8BDD861317026DABDDAC031750DF1
:1002780083C312F626DCBDDC61317023C2FD99020E
:1002880093DF0CF626D8BDD861317026DABDDAC204
:10029800D7C161686BDC6BDDC0DD2F61DD717BFA76
:1002A800CFE80080BEF4ADDCBEF6ADD8BEF0ADDA66
:1002B800BEF2CFE800818FE8003103FAAEF0BDD876
:1002C800AEF2BDDAF5E80061CDD7F6BDD8BDDAD714
:1002D8008292DD2B61DD717BFACFE80080BEF0F6FB
:1002E800BEF2BEF46208BEF6CFE800818FE80031A6
:1002F80003FAAFE0006072AEF0F5E80061CDD760B8
:1003080072F6B1D7C5C314DADCC9DC0000ADDEC1B2
:10031800CDDF00C7F4DEFADC8DDA5C7F9DDD6BD9BA
:100328006BD861F87112DE645C7F9DDC616B616A79
:1003380061F87102DE1501707177DB7171DE71741D
:10034800DA8DDB61DC4CFFDD05D1DF35EF293114B7
:10035800DE097152DEEF2A3102DE06ED8107ED7CFF
:10036800073162DEF9ED69077122DE813104DE1999
:100378003152DEEAED54077132DE817114DE7161AB
:10038800DE084CFFDDD1D1DDDF3152DED83162DE4F
:10039800E36100F161DC247F00146370318C6672C4
:1003A8008DDC3124DE08B5311C61EE3175F871FA47
:1003B800BDDA1337D8D9E8D8F8DD618A3134DE08D8
:1003C800B5311C61EE3175F871FA35BDD81761DDAC
:1003D800717BFABEF013BEF200DBF4FFADDABEF0BB
:1003E80000AEF60312AEF461D8A161CD3761DD71BC
:1003F8007BFABEF015BEF200AEF6039DDCAEF461EA
:10040800D8A114ADDABEF000AEF6DBF4FF61CD077B
:1004180061D8A30561D8A33331730D7174DC61FE13
:1004280061EE14ADD8EDE80614ADD8A1EDE806C527
:10043800C314DADCC9DC0000ADDEC1CDDF01C7F4CE
:10044800DEFADC645C7F9DDC616B616A61F87112C5
:10045800DE8DDA5C7F9DDD6BD96BD861F87102DEC9
:100468001501707177DB7171DE7174DA8DDB61DC17
:100478004CFFDD05D1DF3CEF303104DE097142DE8F
:10048800EF313112DE06ED8107ED7C073142DEF9EE
:10049800ED54073162DE0C7132DE813114DE1C311D
:1004A80062DEE6ED6107ED69077122DE817104DE27
:1004B8007161DE084CFFDDCAD1DDDC3142DEE73197
:1004C80062DECD6120F13C00047F00146370318C42
:1004D80066728DDC3134DE08A5311C61EE3175F8A9
:1004E80071FA08618B72F1BDDAADD80833BDD867EF
:1004F800618A708DDD3124DE08B5311C61EE3175FD
:10050800F871FA35BDDC1361DD717BFACFE8008044
:10051800BEF015BEF2ADD8BEF6ADDABEF4CFE80037
:10052800818FE8003103FAFBF0FFAFE000DBE20067
:10053800F5E80061CD618A7360F061DD717BFACF07
:10054800E80080BEF013BEF2ADD8BEF6ADDABEF458
:10055800CFE800818FE8003103FAEBF0FFAFE0004D
:10056800DBE200F5E80061CD618A7360F061DD715E
:100578007BFACFE80080BEF013BEF2ADD8BEF6AD70
:10058800DABEF4CFE800818FE8003103FAAEF060FC
:1005980075AFE000DBE200F5E80061CD618A7360C9
:1005A800F061DD717BFACFE80080BEF013BEF2ADDA
:1005B800D8BEF6ADDABEF4CFE800818FE80031038B
:1005C800FAAEF0F5E80061CD651217318D75DC04DF
:1005D800B6DCEF0E15311E71FA141361FB0861FBCE
:1005E8000812ADDCEDE80606DABDDAADDC06D8BDEA
:1005F800D861D8A6DAD7C312ADD826DCBDD8613108
:100608007006DA23BDDAC2D7D1DD17C1C3DAD89DA7
:10061800D8ADDA311C61EEB4D8DFF8BDDA13BDD835
:10062800C2C0D7D1DD1BC1C3DADA9DDAADD8311E1D
:1006380033311F3371F9B4DADFF4BDD813BDDAC230
:10064800C0D7D1DD1BC1C3DADA9DDAADD8311E338C
:10065800311E3371F9B4DADFF4BDD813BDDAC2C084
:10066800D74BD8DD0771FF7177D871C0D746D8DD71
:100678000771FF7177D971C0D746DADF08C1ADDCE1
:1006880046D8C0DD077177DB71FF71C0D75BDB9D92
:10069800DB605BDA9DDAADDC5BD9085BD808BDD8D6
:1006A800D76BDB9DDB606BDA9DDAADDC6BD9086B51
:1006B800D808BDD8D7EADA31730C94DD0901311CAA
:1006C80061D8A13175F43560EF2344EAFFDC766028
:1006D8009133311E35311E3571F983DFF533EF0D56
:1006E80071FCDCE644FF006168DE72DDE33172DF35
:1006F80021618A4C80618ADC19DF0633718C33DE14
:100708001183DF0E3571FA04010035DE054CFEDD7C
:100718004C817174DE6C0061FB618D71F9618C61D3
:100728008B618A9DDCF4DE61F8A4DE7174DF61D828
:10073800D7C6D4DE61E8FD8C0715BDDA13BDD8C075
:10074800BDDEC2C4D75102EF047173DEF17174DEED
:100758009DDEF6EF15F4DCEFD25104EF055103EFFF
:1007680001F17174DE9DDE3080FE61FB14F7317299
:10077800DFE3EFB7CDDE05EF02F4DE34FF7F317241
:10078800DFD3EFA78EFC708EFDC1C5C3ADDE315E31
:10079800045616320000C3C1D8DEF1C1AEF8FCB66B
:1007A8000700C0C0C0C2C4C09EFD609EFCD71489AB
:1007B800728A049EFDAA021411894C40DD0E624C17
:1007C8000430020061C8300100BF96EFD7C5C314DA
:1007D800DADCC9DC0000ADDEC1CDDF02C7F4DEFA29
:1007E800DC8DDA5C7F9DDD6BD96BD861F87112DE28
:1007F800645C7F9DDC616B616A61F87102DE1501E2
:100808007171DE707174DA8DDB61DC7177DE7161B4
:10081800DE4CFFDD08D1DD407172DDEF423114DEC0
:10082800097152DEEF393102DE03ED81073154DE02
:100838001F3164DE1BED7C07813104DE313142DE7D
:1008480007EADADAD867EF093164DE04517F6155C7
:10085800669DDCF4DEED3307817114DE7141DE083C
:100868004CFFDDC23152DED9D1DDCD7172DC3142AF
:10087800DEDE6128DD13DE0B4CE1DCC57CFF817117
:1008880080EF064C20DEC96100BDDAADD8EADC375E
:10089800618A33618E37618CDC12DD1E37311E357B
:1008A800311E3571F9B4DBDFF437EF0E33311E3307
:1008B800311E3371F9B4DBDFF433353164DE28459A
:1008C800DF05374337DD1ADE0A352533273361D88C
:1008D800B1EF0B7ADE80253723121761D8B1EDBD51
:1008E80006ED5107ED650733073308611C08611DE4
:1008F800DEEC4ADAFEDDEDA4DA33311E33311E7147
:10090800FA3371F933EFD77C80C5C314DADCC9DC5C
:100918000000ADDEC1CDDF03EDE4077ADB80D7DF71
:100928001D06DC44807FDF167152DEEF32DF0F06D2
:10093800D844807FDF083154DE3C3172DE3CC9DEAA
:100948000504FD8C07EF46C514ADDEC1657BDB5C95
:10095800809DDEADDA71FB3571FB44807FDEC035EA
:1009680044807FDEC86BD96BD86BDD6BDC0561C852
:10097800DD1BADDA71FB3174DE077174DBF181EFD9
:100988000C45ADD861F846DC61E87177DBC0BDDEA7
:10099800C4D7C5C3C18DDA71FA73F8D9ADDA01F0DD
:1009A8004C9FDE622C7FDC5E2C10DE1F8133DD0560
:1009B800311E83DFFB3174DB0914F62312F625613F
:1009C800D8B3BDD813BDDAC0C2C4D72C08DE1633DD
:1009D80083F8D8DD0B311E618A61FB618A83DFF5FC
:1009E800618A08EFD02C07758DD8DD0D311E3331A3
:1009F8001E3371F985DFF5EFBC3174DB09311C0357
:100A0800DC045380DDBCF7F6EFB8C5C3C18DDA71DD
:100A1800FA73F8D9ADDA01F0DC144C9E61D8EDAC6C
:100A280009DF0B8DD8BDD813BDDAC0C2C4D7F6BD57
:100A3800DABDD8EFF5C5C3C1ADDADAD83175091416
:100A4800F62312F661D8B125ED5C0AC5C3C1ADDA4B
:100A5800DAD8F4DB0361C8DD3B23559E31730A9570
:100A680001311C61D8A13175F6618A4C80618ADC3C
:100A780011DF0633718C33DE0983DF060401006160
:100A8800D8857174DB3561FB9DDB6571F99DDA638F
:100A98007064BDD8C0C2C4D7F4DEFADC645C7F9D44
:100AA800DC616B616A61F87112DE8DDA5C7F9DDD55
:100AB8006BD96BD861F87102DE1501707177DB7143
:100AC80071DE7174DA8DDB61DC4CFFDD05D1DF3C52
:100AD800EF303104DE097142DEEF313112DE06ED0E
:100AE8008107ED7C073142DEF9ED54073162DE0CF7
:100AF8007132DE813114DE1C3162DEE6ED6107ED14
:100B080069077122DE817104DE7161DE084CFFDD48
:100B1800CAD1DDDC3142DEE73162DECD6120F13C55
:100B280000047F00146370318C66728DDC3134DE12
:100B380008A5311C61EE3175F871FABDDAADD80837
:100B480033BDD867618A708DDD3124DE08B5311C6C
:100B580061EE3175F871FA35BDDC30000136000000
:100B68003546DA35DF043346D833DE04B6DCEF1217
:100B7800510361D831050B3526DA353326D8336170
:100B8800D8B5311C350861DC0861DC35DC0C35462C
:100B9800DA35DF043346D83371C061DC0861DC081C
:100BA800370861DC0861DC37DECA08121714ADDCCF
:100BB800EDE806F4DEFADC8DDA5C7F9DDD6BD96B3F
:100BC800D861F87112DE645C7F9DDC616B616A61DB
:100BD800F87102DE1501707177DB7171DE7174DAFC
:100BE8008DDB61DC4CFFDD05D1DF35EF293114DE0B
:100BF800097152DEEF2A3102DE06ED8107ED7C072E
:100C08003162DEF9ED69077122DE813104DE1931C6
:100C180052DEEAED54077132DE817114DE7161DE55
:100C2800084CFFDDD1D1DDDF3152DED83162DEE3A1
:100C38006100F161DC247F00146370318C66728D71
:100C4800DC3124DE08B5311C61EE3175F871FABD6E
:100C5800DA1337D8D9E8D8F8DD618A3134DE08B537
:100C6800311C61EE3175F871FA35BDD81765D6BDFE
:100C7800DC1567D606DC377065D61C00BDDC138D25
:100C8800DBD607167101DE63D8DAD6071670F11CB9
:100C9800007104DE1C0006DC570061D88733D8DBFE
:100CA800D6031261D887158DDAD6031261D8876505
:100CB800D8DAD6BDDC64D8DBD606DCBDDC65D8DB8B
:100CC800D61C0061A8DC6103671BDD1ADC0061002B
:100CD8008DDC1C0031730F01146661DC61FE61D884
:0D0CE800A5ADD8EDE80614ADD8A1EDE806E5
:020000020000FC
:100CF500C1C3C5C7520C929269D4FEC1DFF88EFDFF
:100D0500708EFCC1FCB7A400C09EFC609EFD34D46F
:100D1500FE5206C0B9A5A592DFF9C6C4C2C061FCE2
:100D2500C1C3C5C7520C929269D4FEC1DFF88EFDCE
:100D3500708EFCC1200AFBF8FF300A00F7FC119BFE
:100D45000031240703EDA30E309001BC06505EBCB4
:100D550004303200BC02E5D2F6712205FCE2D00077
:100D6500F6C1C130E803C1F6C1C1C1C1C112FC1B46
:100D7500D1001010E6C1F6C1C1C1C1C1C1C112FC8B
:100D85001BD1001010E6C1F6C1308813C1F6C1C1F0
:100D9500C1C1C112FC1BD1001010E6FC97D100E6C1
:100DA500C1F6C130F401C1AC02C1F6C1C1C1C1ACCB
:100DB500061231FF33BDD813BDDAFD3D0ADADAADCF
:100DC500D8FC1BD1001010F6BC08AC084402007119
:100DD500FE61C8ED620EE6C1F6C1503CC1E6C1AC8C
:100DE50002C1F6C1C1C1C1AC041231FF33BDD81374
:100DF500BDDAFD3D0ADADAADD8FC57D1001012E6AE
:100E0500C1F6C1309001C1AC02C1F6C1C1C1C1C9B1
:100E1500D838FFAC08FD85011231FF33BDD813BDAD
:100E2500DAFD3D0ADADAADD8FC1BD1001010E6C1B7
:100E3500F6C1503CC1F6C1AC02C1F6C1C1C1C1ACDD
:100E4500041231FF33BDD813BDDAFD3D0ADADAAD40
:100E5500D8FC57D1001012617908EDCF0DE6C1F627
:100E6500C130BC02C1F6C1C1C1C1C13248C3FC1BFE
:100E7500D1001010F6FC97D100F6C1C130BC02C1FB
:100E8500F6C1C1C1C1C112FC1BD1001010E6C1F6EB
:100E9500C1C1C1C1C1C1C112FC1BD1001010313487
:100EA5000703ED5B10309001BC06505EBC0430704A
:100EB500FEBC02305000BBCFD2F602713305FCE216
:100EC500D000E6C1F6C1308813C1F6C1C1C1C1C1A8
:100ED50012FC1BD1001010E6FC97D100E6C1F6C14B
:100EE50030F401C1ABC1F6C1C1C1C1AC061231FFBD
:100EF50033BDD813BDDAFD3D0ADADAADD8FC1BD116
:100F0500001010F6BC08AC0844020071FE61C8ED83
:100F15009B0FE6C1F6C1503CC1E6C1ABC1F6C1C1EC
:100F2500C1C1AC041231FF33BDD813BDDAFD3D0A92
:100F3500DADAADD8FC57D1001012E6C1F6C130900F
:100F450001C1ABC1F6C1C1C1C1C9D838FFAC08FDEB
:100F550085011231FF33BDD813BDDAFD3D0ADADA5A
:100F6500ADD8FC1BD1001010E6C1F6C1503CC1F64E
:100F7500C1ABC1F6C1C1C1C1AC041231FF33BDD88B
:100F850013BDDAFD3D0ADADAADD8FC57D1001012EF
:100F9500617908ED0B0FE6C1C130B80BC1F6C1C1CF
:100FA500C1C1C13248C4FC1BD1001010F6BC08AC4D
:100FB5000844030071FE61C8ED4110E6C1C1503C13
:100FC500C1E6C1ABC1F6C1C1C1C1AC021231FF332B
:100FD500BDD813BDDAFD3D0ADADAADD8FC57D1002C
:100FE5001012E6C1C1309001C1ABC1F6C1C1C1C18A
:100FF500C9D83200AC08FD85011231FF33BDD813C5
:10100500BDDAFD3D0ADADAADD8FC1BD1001010E6D9
:10101500C1C1503CC1F6C1ABC1F6C1C1C1C1AC0231
:101025001231FF33BDD813BDDAFD3D0ADADAADD88A
:10103500FC57D1001012617908EDB40FF6C1E6C175
:1010450030E803C1F6C1C1C1C1C112FC1BD10010FA
:1010550010F6FC97D10031440703ED2612309001BC
:10106500BC06505EBC043070FEBC02305000BBCFE5
:10107500D2F603712205FCE2D000E6C1C130881327
:10108500C1F6C1C1C1C1C112FC1BD1001010E6FCE3
:1010950097D100E6C1C130F401C1ABC1F6C1C1C1F0
:1010A500C1AC061231FF33BDD813BDDAFD3D0ADAF6
:1010B500DAADD8FC1BD1001010F6BC08AC08440210
:1010C5000071FE61C8ED4E11E6C1C1503CC1E6C1DB
:1010D500ABC1F6C1C1C1C1AC041231FF33BDD813D8
:1010E500BDDAFD3D0ADADAADD8FC57D1001012E6BB
:1010F500C1C1309001C1ABC1F6C1C1C1C1C9D838A8
:10110500FFAC08FD85011231FF33BDD813BDDAFDF3
:101115003D0ADADAADD8FC1BD1001010E6C1C1508A
:101125003CC1F6C1ABC1F6C1C1C1C1AC041231FFAE
:1011350033BDD813BDDAFD3D0ADADAADD8FC57D197
:10114500001012617908EDC110E6C1C130E803C194
:10115500ABC1F6C1C1C1C13248C4FC1BD1001010DE
:10116500E6C1F6C1C1ABC1F6C1C1C1C13248C4FCBB
:101175001BD1001010F6BC08AC0844030071FE61D9
:10118500C8ED0D12E6C1F6C1503CC1E6C1ABC1F6D2
:10119500C1C1C1C1AC021231FF33BDD813BDDAFDE7
:1011A5003D0ADADAADD8FC57D1001012E6C1F6C116
:1011B500309001C1ABC1F6C1C1C1C1C9D83200ACC3
:1011C50008FD85011231FF33BDD813BDDAFD3D0A97
:1011D500DADAADD8FC1BD1001010E6C1F6C1503CDF
:1011E500C1F6C1ABC1F6C1C1C1C1AC021231FF33F9
:1011F500BDD813BDDAFD3D0ADADAADD8FC57D1000A
:101205001012617908ED7D11F6C1C130E803C1F610
:10121500C1C1C1C1C112FC1BD1001010F6FC97D190
:101225000031540703EDD713309001BC06505EBC66
:1012350004302823BC02302D00BBCFD2F604713315
:1012450005FCE2D000E6C1F6C1308813C1F6C1C184
:10125500C1C1C112FC1BD1001010E6FC97D100E6FC
:10126500C1F6C130DC05C1ABC1F6C1C1C1C1AC0617
:101275001231FF33BDD813BDDAFD3D0ADADAADD838
:10128500FC1BD1001010E6C1F6C1C1ABC1AC021206
:1012950031FF33BDD813BDDAFD3D0AADDAC1ADD896
:1012A500C1F6C1C112FC1BD1001010E6C1F6C13058
:1012B500A00FC1ABC1F6C1C1C1C1AC041231FF332E
:1012C500BDD813BDDAFD3D0ADADAADD8FC1BD10075
:1012D5001010E6C1F6C1C1ABC1AC021231FF33BD7E
:1012E500D813BDDAFD3D0AADDAC1ADD8C1F6C1C12D
:1012F50012FC1BD1001010E6C1F6C130D007C1ABFE
:10130500C1F6C1C1C1C1AC041231FF33BDD813BD93
:10131500DAFD3D0ADADAADD8FC1BD1001010E6C1C2
:10132500F6C1C1ABC1AC021231FF33BDD813BDDA72
:10133500FD3D0AADDAC1ADD8C1F6C1C112FC1BD164
:10134500001010E6C1F6C130A00FC1ABC1F6C1C196
:10135500C1C1AC041231FF33BDD813BDDAFD3D0A5E
:10136500DADAADD8FC1BD1001010E6C1F6C1C1AB6D
:10137500C1AC021231FF33BDD813BDDAFD3D0AAD54
:10138500DAC1ADD8C1F6C1C112FC1BD1001010E6FF
:10139500C1F6C130E803C1ABC1F6C1C1C1C1AC04DE
:1013A5001231FF33BDD813BDDAFD3D0ADADAADD807
:1013B500FC1BD1001010E6C1F6C130F401C1F6C125
:1013C500C1C1C1C13248C3FC1BD1001010F6FC9746
:1013D500D100100AC09EFC609EFD34D4FE5206C0AA
:1013E500B9A5A592DFF9C6C4C2C061FCC1C3C5C712
:1013F500520C929269D4FEC1DFF88EFD708EFCC14D
:10140500AF0201F1085C07318EBF0A018D1276AF7C
:10141500E4EF42E6EFDE17EBE2EF6699A2E2EFA218
:10142500E4EFAFE6EF42E4EF61F8FC923900C09ECD
:10143500FC609EFD34D4FE5206C0B9A5A592DFF925
:10144500C6C4C2C061FCC1C3C5C7520C929269D45F
:10145500FEC1DFF88EFD708EFCC1F642E0EFDD0EB9
:10146500EBDEEF899D10A2DEEFB2E0EFEF04FC109A
:101475003A00C09EFC609EFD34D4FE5206C0B9A55C
:10148500A592DFF9C6C4C2C061FC61FC61FC61FCC8
:1014950061FC61FCC1C3ADDCC1ADDAC1ADD8C1AF82
:1014A500AA01F1085C0108E743DF1AAE6AA1BDD8BD
:1014B500F6BDDABDDCE6FDEF05ADDABFD8F6ADD891
:1014C500BFD6F6EF10AE6AA1BDD8F6BDDABFD8F625
:1014D500ADD8BFD6F6AFD6F6BDD8AFD8F6BDDAFDD6
:1014E500530AC9DC000030003FFD0C033172DB05F7
:1014F500FD120AEF03FD9A09ADD8BFBEEFC0BDD8F6
:10150500C0BDDAC0BDDCC2C061FCC1C3ADDCC1ADCC
:10151500DAC1ADD8C1AFAC01F1085C0108E743DF22
:101525001AAE6CA1BDD8F6BDDABDDCE6FDEF05ADA2
:10153500DABFDCF6ADD8BFDAF6EF10AE6CA1BDD8D8
:10154500F6BDDABFDCF6ADD8BFDAF6AFDAF6BDD850
:10155500AFDCF6BDDAFD530AC9DC9643300B3CFD22
:101565000C03C9DC0000304040FD0F09ADDABF288F
:10157500F0ADD8BF26F0C0BDD8C0BDDAC0BDDCC255
:10158500C061FCC1C3C5C7520C929269D4FEC1DFCC
:10159500F88EFD708EFCC1A21EF7F6421EF761F8AB
:1015A500A220F7D5CCF6DD75A22AF7300A00422A2B
:1015B500F7DF07F6BF2AF7E524F7A22CF730C800B6
:1015C500422CF7DF16E523F7F6BF2CF7D5D2F6DD6B
:1015D50006FC273900EF04FCEF3600A230F730F4A3
:1015E500014230F7DF25F6BF30F7D5D2F6DD15AF6E
:1015F50026F0BDD8AF28F0BDDAFD9A09ADD8FC3D7F
:101605003700EF07AFBEEFFC3D3700A232F730E8F9
:10161500034232F7DF07F6BF32F7E525F7306BEE09
:101625004220F7DF0630FF27421EF7DE07F6BF1E12
:10163500F7BF20F7C09EFC609EFD34D4FE5206C065
:10164500B9A5A592DFF9C6C4C2C061FCF576F36100
:01165500FC98
:020000020000FC
:101656004040666D756C0000404066646976000027
:101666004040666164640000404066737562000035
:10167600404066636D70000061636F730000000098
:101686006173696E000000006174616E0000000005
:101696006174616E32000000636F73000000000029
:1016A60073696E000000000074616E0000000000A7
:1016B600636F73680000000073696E6800000000C5
:1016C60074616E680000000065787000000000001C
:1016D60066726578700000006C64657870000000C2
:1016E6006C6F6700000000006C6F6731300000000F
:1016F6006D6F646600000000706F770000000000E8
:1017060073717274000000006365696C000000006C
:0E171600666C6F6F72000000666D6F640000FD
:020000020000FC
:1017240000000000803F00000000003F00ABAAAAB8
:10173400AA3E00000000803E00154080803F00ABC0
:101744000001813F005B0504823F00002B10843FB1
:1017540000BC5A41883F002E020B913F00E2F15A2F
:10176400A43F00714C09D33F005954F82D4000C6E2
:101774002573EC40007181645A4200EA534F3A45A4
:1017840000855E97074B0062FEA18F560068C12C4E
:08179400A16D0099A34E4B1159
:020000020000FC
:10179C00000000000000000000000000000000003D
:1017AC000000402168210000000000000000000043
:1017BC00000000000000000000000000000000001D
:1017CC00000000000000000000000000000000000D
:1017DC007621000000000000000000000000000066
:1017EC0000000000000000000000000000000000ED
:1017FC0000000000000000000000000000000000DD
:10180C0000000000FF000000FF00000001000000CD
:10181C00C2010000000000000000000000000000F9
:10182C00803F0000803F0000803F0AD7233C00002F
:10183C00000000000000000000000000000000009C
:02184C0000009A
:020000020000FC
:10184E00FFFFFFFFFFFFFFFFFFFFFFFFFFFFFFFF9A
:10185E00FFFFFFFFFFFFFFFFFFFFFFFFFFFFFFFF8A
:10186E00FFFFFFFFFFFFFFFFFFFFFFFFFFFFFFFF7A
:10187E00FFFFFFFFFFFFFFFFFFFFFFFFFFFFFFFF6A
:021FFE00FFFFE3
:020000020000FC
:1020000066696E642063726F7373206C696E650D10
:102010000A006C656176652063726F7373206C696A
:102020006E650D0A0000526F6C6C3A00526F6C6C5A
:102030003A000D0A000D0A0050697463683A0050B6
:10204000697463683A000D0A000D0A005961773A15
:10205000005961773A000D0A000D0A0050574D5F94
:10206000496E4368333A0050574D5F496E436833B9
:102070003A000D0A000D0A0073797374656D746976
:102080006D653A0073797374656D74696D653A00B6
:102090000D0A000D0A0042453A25642425642425D2
:1020A00064240D0A0042483A2564240D0A00424D7A
:1020B0003A25642425642425642425640D0A0042FD
:1020C000493A25642425642425642425640D0A00E6
:1020D00042543A25642425642425640D0A004247AD
:1020E0003A2564242564242564240D0A0042413ADB
:1020F0002564242564242564240D0A0042503A25D1
:10210000642425640D0A0042503A25642425640D98
:102110000A0042453A2564242564242564240D0AD6
:102120000042543A25642425640D0A0042503A25A1
:10213000642425640D0A0042483A2564240D0A00EF
:1021400075191A0C6A231B1C1F207274433B4138FB
:10215000393A6B6C376F06246D6E70252627282957
:102160002A34636467490100680000047600540162
:10217000F7FD000166268300000000080000000152
:10218000001832000500000020410000D242295C06
:102190000F3E9A99993E3333733F295C0F3E2523B6
:1021A00035783A20252335780D0A0000000000001C
:1021B00000556E737570706F7274656420736F660E
:1021C00074776172652070726F64756374207265D4
:1021D000762025642E0A0050726F6475637420495E
:1021E000442072656164206173203020696E6469E7
:1021F0006361746573206465766963652069732023
:1022000065697468657220696E636F6D7061746969
:10221000626C65206F7220616E204D5055333035F1
:10222000302E0A0048616C662073656E73697469AC
:1022300076697479207061727420666F756E642E91
:102240000A004572726F722032207768656E206CCA
:102250006F6164206669726D0A004572726F722048
:1022600032207768656E206C6F6164206669726DDC
:102270000A004572726F722033207768656E206C99
:102280006F6164206669726D0A004572726F722018
:102290006C6F6164696E67206669726D77617265E3
:1022A0002C2069693D25642C206C656E6774683D3F
:1022B00025642C20746869735F77726974653D25A5
:1022C000642E0A00636F6D706172652072657375AC
:1022D0006C742025640A00436F6D70617373206E07
:1022E0006F7420666F756E642E0A00000000700027
:1022F00000000024000000020003000000650054FC
:10230000FFEF0000FA80000B12820001030C30C3C3
:102310000E8C8CE914D5400213710F8E3883F8832C
:102320003000F883258EF8833000F883FFFFFFFF2D
:102330000FFEA9D6240004001A8279A10000003CF7
:10234000FFFF00000010000038836FA2003E033042
:102350004000000002CAE3093E80000020000000A7
:10236000000000004000000060000000000C0000C1
:10237000000C186E000006920A16C0DFFFFF02561E
:10238000FD8CD377FFE1C496E0C5BEAA0000000033
:10239000FFFF0B2B00001657000003594000000000
:1023A00000001DFA00026C1D000000003FFFDFEB83
:1023B000003EB3B6000D227800002F3C0000000064
:1023C000001942B5000039A20000B365D90E9FC9BB
:1023D0001DCF4C3430000000500000003BB67AE8BE
:1023E0000064000000C800000000000010000000B1
:1023F0001000FA921000225E000D229F00010000E2
:1024000000320000FF46000063D40000100000000E
:1024100004D6000004CC000004CC000000001072C0
:102420000000004000000000000000000006000264
:10243000000500070000000000640000000000002C
:1024400000000005000500640020000000000000FE
:102450000000000000004000000003000000003207
:10246000F8980000FF650000830F0000FF9BFC0050
:10247000000000000000000000000000000000005C
:10248000000000000000000000000000000000004C
:1024900000000000000000000000100040000000EC
:1024A000000000060000B26A000200000001FB8389
:1024B0000068000000D9FC007CF1FF8300000000F0
:1024C00000650000006403E80064002800000025A7
:1024D0000000000016A00000000010000000100026
:1024E000002F0000000001F4000010000028000090
:1024F000FFFF4581FFFFFA720000000000000000AE
:10250000004400050005BAC6004778A2000000019B
:102510000000000000000600000000140000254D2F
:10252000002F706D000005AE000C02D0000000000E
:10253000000000000000000000000000001B000080
:102540000000000000000000000000000064000027
:102550000008000000000000000000000000000073
:10256000000000000000000000000000000000006B
:10257000000000000000000000000000000000005B
:10258000000000000000000000000000000000004B
:10259000000000000000000000000000000000003B
:1025A000000000000000000000000000001B000010
:1025B0000000000000000000000E000E00000AC72E
:1025C0000004000000000032FFFFFF9C00000B2B06
:1025D000000000020000000100000064FFE50000B0
:1025E00000000000000000000000000000000001EA
:1025F0000000000000010000000000000001800059
:102600000001800000018000002426D300000000AB
:1026100000000000000600100096003C00000000D2
:102620000000000000000000000000000C0A4E68DE
:10263000CDCF770950166759C619CE820000000029
:10264000000000000000000000000000000000008A
:102650000000000017D78400030000000000000005
:1026600000000000C7938F9D1E1B1C190000000076
:10267000000000000000000000000000000000005A
:102680000000000002031885000040000000000365
:1026900000000003000000000000000040000000F7
:1026A000000000000000000000000000000000002A
:1026B000000000000000000000000000000000001A
:1026C000000000000000000000000000000000000A
:1026D000677DDF7E72902E554CF6E6880000000084
:1026E000000000000000000000000000D8DCB4B8CA
:1026F000B0D8B9ABF3F8FAB3B7BB8E9EAEF132F5F2
:102700001BF1B4B8B08097F1A9DFDFDFAADFDFDF0C
:10271000F2AAC5CDC7A90CC92C97F1A9892646668E
:10272000B28999A92D557DB0B08AA896365676F112
:10273000BAA3B4B280C0B8A89711B28398BAA3F074
:10274000240844106418B2B9B49883F1A329557DC4
:10275000BAB5B1A38393F0002850F5B2B6AA83931B
:1027600028547CF1B9A3829361BAA2DADEDFDB815F
:102770009AB9AEF5606870F1DABAA2DFD9BAA2FAF6
:10278000B9A38292DB31BAA2D9BAA2F8DF85A4D06C
:10279000C1BBAD83C2C5C7B8A2DFDFDFBAA0DFDF30
:1027A000DFD8D8F1B8AAB38DB4980D355DB2B6BAFA
:1027B000AF8C96198F9FA70E161EB49AB8AA872CB5
:1027C000547CBAA4B08AB691325676B28494A4C826
:1027D00008CDD8B8B4B0F19982A82D557D98A80E2F
:1027E000161EA22C547C92A4F02C5078F184A89848
:1027F000C4CDFCD80DDBA8FC2DF3D9BAA6F8DABA03
:10280000A6DED8BAB2B68696A6D0F3C841DAA6C874
:10281000F8D8B0B4B882A892F52C548898F135D97C
:10282000F418D8F1A2D0F8F9A884D9C7DFF8F88352
:10283000C5DADF69DF83C1D8F40114F1A8824EA89C
:1028400084F311D182F5D992289788F109F41C1CE0
:10285000D884A8F3C0F9D1D99782F129F40DD8F31F
:10286000F9F9D1D982F4C203D8DEDF1AD8F1A2FA7D
:10287000F9A88498D9C7DFF8F8F883C7DADF69DFE9
:10288000F883C3D8F40114F198A8822EA884F31118
:10289000D182F5D992509788F109F41CD884A8F315
:1028A000C0F8F9D1D99782F149F40DD8F3F9F9D1EB
:1028B000D982F4C403D8DEDFD8F1AD8898CCA8095A
:1028C000F9D98292A8F57CF1883ACF944A6E98DBC8
:1028D0006931DAADF2DEF9D88795A8F221D1DAA50F
:1028E000F9F417D9F1AE8ED0C0C3AE82C684C3A8A6
:1028F0008595C8A588F2C0F1F4010EF18E9EA8C698
:102900003E56F554F18872F40115F19845856EF53F
:102910008E9E0488F142985A8E9E068869F4011CA6
:10292000F1981E1108D0F504F11E97020298362581
:10293000DBF9D985A5F3C1DA85A5F3DFD88595A89C
:10294000F309DAA5FAD88292A8F578F1881A849F5B
:1029500026889821DAF41DF3D8879F39D1AFD9DFC3
:10296000DFFBF9F40CF3D8FAD0F8DAF9F9D0DFD9B3
:10297000F9D8F40BD8F3879F39D1AFD9DFDFF41D35
:10298000F3D8FAFCA869F9F9AFD0DADEFAD9F88FF2
:102990009FA8F1CCF398DB45D9AFDFD0F8D8F18F01
:1029A0009FA8CAF38809DAAF8FCBF8D8F2AD978D1C
:1029B0000CD9A5DFF9BAA6F3FAF412F2D8950DD125
:1029C000D9BAA6F3FADAA5F2C1BAA6F3DFD8F1BAFA
:1029D000B2B68696A6D0CAF349DAA6CBF8D8B0B478
:1029E000B8D8AD84F2C0DFF18FCBC3A8B2B686965B
:1029F000C8C1CBC3F3B0B48898A821DB718D9D7199
:102A0000859521D9ADF2FAD88597A828D9F408D8A8
:102A1000F28D29DAF405D9F285A4C2F2D8A88D94F2
:102A200001D1D9F411F2D88721D8F40AD8F28498C8
:102A3000A8C801D1D9F411D8F3A4C8BBAFD0F2DE35
:102A4000F8F8F8F8F8F8F8F8D8F1B8F6B5B9B08AA7
:102A500095A3DE3CA3D9F8D85CA3D9F8D87CA3D938
:102A6000F8D8F8F9D1A5D9DFDAFAD8B18530F7D995
:102A7000DED8F830ADDADED8F2B48C99A32D557DCE
:102A8000A083DFDFDFB591A0F629D9FBD8A0FC2910
:102A9000D9FAD8A0D051D9F8D8FC51D9F9D879D9D8
:102AA000FBD8A0D0FC79D9FAD8A1F9F9F9F9F9A0A5
:102AB000DADFDFDFD8A1F8F8F8F8F8ACDEF8ADDE41
:102AC0008393AC2C547CF1A8DFDFDFF69D2CDAA0D9
:102AD000DFD9FADB2DF8D8A850DAA0D0DED9D0F8AB
:102AE000F8F8DB55F8D8A878DAA0D0DFD9D0FAF812
:102AF000F8F8F8DB7DF8D89CA88CF530DB38D9D015
:102B0000DEDFA0D0DEDFD8A848DB58D9DFD0DEA0DA
:102B1000DFD0DED8A868DB70D9DFDFA0DFDFD8F137
:102B2000A888902C547C98A8D05C38D1DAF2AE8C6E
:102B3000DFF9D8B087A8C1C1B188A8C6F9F9DA36DB
:102B4000D8A8F9DA36D8A8F9DA36D8A8F9DA36D812
:102B5000A8F9DA36D8F78D9DADF818DAF2AEDFD8DD
:102B6000F7ADFA30D9A4DEF9D8F2AEDEFAF983A7D0
:102B7000D9C3C5C7F1889BA77AADF7DEDFA4F88477
:102B80009408A797F300AEF29819A488C6A3948876
:102B9000F632DFF28393DB09D9F2AADFD8D8AEF898
:102BA000F9D1DAF3A4DEA7F1889B7AD8F38494AE46
:102BB00019F9DAAAF1DFD8A881C0C3C5C7A39283E7
:102BC000F628ADDED9F8D8A350ADD9F8D8A378ADA2
:102BD000D9F8D8F8F9D1A1DADEC3C5C7D8A1819454
:102BE000F818F2B089ACC3C5C7F1D8B8B4B09786AD
:102BF000A8319B069907AB9728889BF00C201440BE
:102C0000B0B4B8F0A88A9A285078B79BA82951790F
:102C1000247059446938644831F1BBAB88002C54A6
:102C20007CF0B38BB8A804285078F1B088B497260C
:102C3000A85998BBABB38B02264666B0B8F08A9C05
:102C4000A82951798B2951798A2470598B20587180
:102C50008A4469388B3940688A6448318B304960CE
:102C600088F1AC002C547CF08CA804285078F188B2
:102C70009726A85998AC8C02264666F0899CA8290C
:102C80005179247059446938644831A98809205918
:102C900070AB11384069A8193148608CA83C415C80
:102CA000207C00F187981986A86E767EA999882DD8
:102CB000557DD8B1B5B9A3DFDFDFAED0DFAAD0DE56
:102CC000F2ABF8F9D9B087C4AAF1DFDFBBAFDFDF21
:102CD000B9D8B1F1A3978E60DFB084F2C8F8F9D902
:102CE000DED89385F14AB183A308B5839A0810B75B
:102CF0009F10D8F1B0BAAEB08AC2B2B68E9EF1FBC8
:102D0000D9F41DD8F9D90CF1D8F8F8AD61D9AEFBDA
:102D1000D8F40CF1D8F8F8AD19D9AEFBDFD8F41619
:102D2000F1D8F8AD8D61D9F4F4ACF59C9C8DDF2B16
:102D3000BAB6AEFAF8F40BD8F1AED0F8AD51DAAEBF
:102D4000FAF8F1D8B9B1B6A3839C08B9B1839AB5A2
:102D5000AAC0FD3083B79F10B58B93F20202D1ABAE
:102D6000DADED8F1B080BAABC0C3B284C1C3D8B187
:102D7000B9F38BA391B609B4D9ABDEB0879CB9A3E4
:102D8000DDF1B38B8B8B8B8BB087A3A3A3A3B28B0B
:102D9000B69BF2A3A3A3A3A3A3A3A3A3A3F1B0876A
:102DA000B59AA3F39BA3A3DCBAACDFB9A3A3A3A3F7
:102DB000A3A3A3A3A3A3A3A3A3A3A3A3D8D8D8BB2C
:102DC000B3B7F1AAF9DAFFD9809AAA28B48098A7F4
:102DD00020B79787A86688F07951F1902C870CA7C7
:102DE00081976293F071716085940129517990A562
:102DF000F1284C6C870C95188578A38390284C6C2F
:102E0000886CD8F3A28200F210A8921980A2F2D99D
:102E100026D8F188A84DD948D896A83980D93CD869
:102E20009580A839A68698D92CDA87A72CD8A889A6
:102E30009519A980D938D8A88939A980DA3CD8A8A9
:102E40002EA83990D90CD8A8953198D90CD8A809B2
:102E5000D9FFD801DAFFD89539A9DA26FFD890A88A
:102E60000D8999A810809821DA2ED88999A83180E7
:102E7000DA2ED8A886963180DA2ED8A8873180DA63
:102E80002ED8A88292F34180F1D92ED8A882F319C6
:102E900080F1D92ED882ACF3C0A28022F1A62EA751
:102EA0002EA92298A829DAACDEFFD8A2F22AF1A92D
:102EB0002E8292A8F23180A696F1D900AC8C9C0C9F
:102EC00030ACDED0DEFFD88C9CACD010ACDE809273
:102ED000A2F24C82A8F1CAF235F19688A6D900D8A0
:102EE000F1FF00044CCD6C0CC92C36567626466694
:102EF000FEF2ABC4AAF1DFDFBBAFDFDFB8AAB38D50
:102F0000B4980D355DB8AAAAAAB088C3C5C7D8B110
:102F1000B9F38BA391B609B4D9DAB1B9F38BA39104
:102F2000B6DAB4DA6D707520696E6974206661690D
:102F30006C212121210A006D707520696E69742051
:102F40006661696C212121210A006D70755F7365CE
:102F5000745F73656E736F7273206661696C212193
:102F600021210A006D70755F7365745F73656E7300
:102F70006F7273206661696C212121210A006D70D6
:102F8000755F636F6E6669677572655F6669666FA8
:102F9000206661696C212121210A006D70755F63D3
:102FA0006F6E6669677572655F6669666F206661D8
:102FB000696C212121210A006D70755F7365745F52
:102FC00073616D706C655F72617465206661696CB8
:102FD000212121210A006D70755F7365745F736133
:102FE0006D706C655F72617465206661696C21212A
:102FF00021210A00646D705F6C6F61645F6D6F7496
:10300000696F6E5F6472697665725F6669726D770B
:10301000617265206661696C212121210A00646D5D
:10302000705F6C6F61645F6D6F74696F6E5F647207
:10303000697665725F6669726D7761726520666137
:10304000696C212121210A00646D705F7365745FD2
:103050006F7269656E746174696F6E206661696C08
:10306000212121210A00646D705F7365745F6F72A6
:1030700069656E746174696F6E206661696C212187
:1030800021210A00646D705F656E61626C655F6628
:10309000656174757265206661696C212121210A60
:1030A00000646D705F656E61626C655F666561741A
:1030B000757265206661696C212121210A00646DA9
:1030C000705F7365745F6669666F5F7261746520B7
:1030D0006661696C212121210A00646D705F73654E
:1030E000745F6669666F5F72617465206661696CA2
:1030F000212121210A006D70755F7365745F646D15
:10310000705F7374617465206661696C212121218F
:103110000A006D70755F7365745F646D705F7374C2
:10312000617465206661696C212121210A00646D4A
:10313000705F7365745F696E746572727570745FC9
:103140006D6F6465206661696C212121210A00642C
:103150006D705F7365745F696E746572727570749B
:103160005F6D6F6465206661696C212121210A0011
:020000020000FC
:10317000FC8A3400FCEA3300FC083C00FC6E3C0096
:10318000FCA03C00FC519B00FC163D00ECCDCD00AA
:10319000FC8A3400E6C13024F0FCE23400C0D7C71A
:1031A000A2CEF6AFCEF60161E3EEAA00F6BFCEF6F0
:1031B00042D0F6DF2630C6EFFCAED1001316F6473C
:1031C000DF19E6BFD0F6D9D9EFC1D9D8EFC1AFC862
:1031D000EFC130CAEFFCCDBD001006F642D0F6DDDF
:1031E00075AFD6EF240A00BFD6EFD5C6EFDF0C8F40
:1031F000D7EF01DE61F6BFD0F6EF5B40C6EF01DF2F
:1032000045F642DAEFDD1F427AF7DF4A8FDCEF9DA9
:10321000D88F74F7FD6906DE3DF6BFD0F63000208A
:10322000FC823900EF30F6427AF7DF0D8F74F79D9C
:10323000D88FDCEFFD6906DE1DF6BFD0F630122018
:10324000FC823900EF1040C6EF02DF0A8FDDEF9FEE
:103250004AF7F6BFD0F6C6D7FCBC3200FCE2D0007D
:10326000FC6B9B0013BFC2EF15BFC4EFFC6B9B0050
:1032700013BDD815BDDAAFC2EFBDDCAFC4EFFDFEA4
:1032800005F646DADF05301F4E46D8DC06FC35A6CB
:1032900000EFD9FC22BE00713205E5CCF6FC90317E
:1032A00000FC35A600D524F7DD0BF524F7FC2FC56F
:1032B00000FC9F3100FCB5B400EFE6D7717AFAFC50
:1032C00070310030C800F7FC119B00FCBBA400F675
:1032D00043DD05712205EFFBD7F57700FC263300AF
:1032E000FC2B3300FC0F3300FCF83300FC7BCD00DB
:1032F000FC113A00FC399B00FC4C3300FCAC330061
:10330000F5F002F57800D7717BFAFCD93200D7F5D9
:10331000A0FF717AA1714BA4716AA1CFF300107163
:103320006BA4710BA1D7C78EA8C6D7CD0003F4013B
:10333000E403F405F407F40DCF37003CCE20FCCEB7
:1033400021C6CE23FECE25F3CE27FCD7712AE47109
:103350002BE0713AE4713BE0714AE4714BE0715A41
:10336000E4715BE0716AE4716BE0717AE4717BE0B7
:10337000713AD4713BD0714AD4714BD0715AD47127
:103380005BD0716AD4716BD0717AD4717BD0710AC1
:10339000D5710BD1712BEC712BE8E539FFD7712B6F
:1033A000E0712BE4D7712AE4712BE0D7C7C1FBF899
:1033B000FF713AE7713BE3713AEF713AEBCE373C7C
:1033C0008E276C049E278E276C089E278E276C10F4
:1033D0009E278E276C209E27CC01008C014C08DE96
:1033E0000600615901EFF4C0C6D7713BE3713BE7BA
:1033F000D7713AE7713BE3D77120F000000000007D
:10340000301100BF2601EC0A3400AF2401086C0320
:1034100008BF2401715AE5715BE1716AE5716BE1E6
:10342000717AE5717BE1715AED715AE9716AED715A
:103430006AE9302200BF1001309780BF1801C9101F
:1034400000888F70006C019F7000300700BF0A0178
:10345000302201BF1201309740BF1A01C912008803
:10346000AF2801086C0108BF2801AF3401BF340147
:10347000AF2A01086C0108BF2A018E216C029E212F
:103480006A01048E215CFB9E21D7715BE1715BE5D3
:10349000716BE1716BE5717BE1717BE5AF28010830
:1034A0006C0108BF2801AF2A01086C0108BF2A017E
:1034B000AF2201086C0308BF2201D7AF2401086CBA
:1034C0000308BF2401AF2A01085CFE08BF2A01716E
:1034D0005AE5715BE1716AE5716BE1717AE5717BC7
:1034E000E1D7C7C1C1FBF8FFF6BB61490ADF055050
:1034F00081BBEF0EF6BFE4EFAC0ABFE6EFAC02BF54
:10350000E2EFAB121004C6D7C7C1C1FBF8FFF6BB90
:1035100061490ADF055081BBEF1CAC02BFDEEFAC96
:103520000ABFE0EF715AE5EBDEEF899D10A2DEEFF6
:10353000B2E0EF715BE5AB121004C6D7C7C120043F
:10354000FBF8FF715AE5F6BC02AC0261490CDE1AC9
:10355000AC0261090414899D10AF0001F1085C40C0
:10356000086168DFF4617902EFDFF71006C6D7C79C
:10357000301400C136E8EFC75005C1AF9AF1DB9CAB
:10358000F1FCA898001006302620FC04D700C330B8
:103590002C20FC3C3500C030E8EFFC04D700C330E1
:1035A000E8EFFC3C3500C0303220FC04D700C330CB
:1035B0003520FC3C3500C0301400C136E8EFC75060
:1035C00005C1AF9EF1DBA0F1FCA8980010063038D1
:1035D00020FC04D700C3303F20FC3C3500C030E85D
:1035E000EFFC04D700C330E8EFFC3C3500C03046A8
:1035F00020FC04D700C3304920FC3C3500C0301407
:1036000000C136E8EFC75005C1AFA2F1DBA4F1FC61
:10361000A898001006304C20FC04D700C33051207D
:10362000FC3C3500C030E8EFFC04D700C330E8EFC5
:10363000FC3C3500C0305620FC04D700C330592074
:10364000FC3C3500C0C6D7C7301400C136E8EFC710
:10365000E6A1C1AFBEEFF7BDD813BDDAFD3D0ADA72
:10366000DAADD8FCA898001006305C20FC04D70026
:10367000C3306720FC3C3500C030E8EFFC04D700C5
:10368000C330E8EFFC3C3500C0307220FC04D700AA
:10369000C3307520FC3C3500C0C6D7C7301400C10C
:1036A00036E8EFC7E6C1FC6B9B0013BDD815BDDA49
:1036B000FD530ADADAADD8FCA8980010063078205D
:1036C000FC04D700C3308420FC3C3500C030E8EF58
:1036D000FC04D700C330E8EFFC3C3500C03090203C
:1036E000FC04D700C3309320FC3C3500C0C6D7AFE4
:1036F000A2F1BDD8AFA4F1BDDAFD9A09ADD8C1AF32
:103700009EF1BDD8AFA0F1BDDAFD9A09ADD8C1AF29
:103710009AF1BDD8AF9CF1BDDAFD9A09ADD8C130A0
:103720009620C130E8EFFC24D200100830E8EFFC0E
:1037300004D700C330E8EFFC3C3500C0D7C716C73C
:1037400030A520C130E8EFFC24D200100430E8EFAF
:10375000FC04D700C330E8EFFC3C3500C0C6D7AF4F
:103760001CF2C1AF1AF2C1AF18F2C1AF16F2C130EC
:10377000AE20C130E8EFFC24D200100A30E8EFFCA4
:1037800004D700C330E8EFFC3C3500C0D7AFC0EF32
:10379000C1AFBEEFC1AFBCEFC1AFBAEFC130BF2008
:1037A000C130E8EFFC24D200100A30E8EFFC04D767
:1037B00000C330E8EFFC3C3500C0D7AF40F3BDD8C4
:1037C000AF42F3BDDAFD9A09ADD8C1AF3CF3BDD825
:1037D000AF3EF3BDDAFD9A09ADD8C1AF38F3BDD81D
:1037E000AF3AF3BDDAFD9A09ADD8C130D020C1306F
:1037F000E8EFFC24D200100830E8EFFC04D700C347
:1038000030E8EFFC3C3500C0D7AFB6F1BDD830642E
:1038100000FD8501C1AFB4F1BDD8306400FD850164
:10382000C1AFB2F1BDD8306400FD8501C130DE20EA
:10383000C130E8EFFC24D200100830E8EFFC04D7D8
:1038400000C330E8EFFC3C3500C0D7AFCCF1BDD8A9
:10385000306400FD8501C1AFCAF1BDD8306400FD00
:103860008501C1AFC8F1BDD8306400FD8501C1300C
:10387000ED20C130E8EFFC24D200100830E8EFFC66
:1038800004D700C330E8EFFC3C3500C0D7AF70F37D
:10389000C1AF6EF3C130FC20C130E8EFFC24D20090
:1038A000100630E8EFFC04D700C330E8EFFC3C35ED
:1038B00000C0D7AF6EF3C1AF4CF7C1300721C130A4
:1038C000E8EFFC24D200100630E8EFFC04D700C378
:1038D00030E8EFFC3C3500C0D7F6C1AF6CF3C1AFA8
:1038E0006AF3C1301221C130E8EFFC24D200100885
:1038F00030E8EFFC04D700C330E8EFFC3C3500C0F3
:10390000D7AF60F3C1AF5EF3C1302121C130E8EF22
:10391000FC24D200100630E8EFFC04D700C330E8E6
:10392000EFFC3C3500C0D7AF72F7C18F74F7318F11
:10393000C1302C21C130E8EFFC24D200100630E861
:10394000EFFC04D700C330E8EFFC3C3500C0D7AF34
:1039500070F7C1303721C130E8EFFC24D2001004E9
:1039600030E8EFFC04D700C330E8EFFC3C3500C082
:10397000D730E8EFFC04D700C330E8EFFC3C35005B
:10398000C0D7C71617FC04D700C317FC3C3500C0CE
:10399000C6D7C7F6BFE4EFE6BFE6EF3024F0BFE2DC
:1039A000EF4024F04661F8E5D4F640D4F601DF5547
:1039B0008FD5F6A0D5F6738F24F01810F04010F0D4
:1039C00046DF428FD5F691730910F04C48DF36F58B
:1039D000D5F6301400C1F6C130FCEFFCEBD6001078
:1039E000048F12F02C2C318EC13610F0C730FCEF52
:1039F000FCB2D6001004301400C1F6C13010F0FC47
:103A0000EBD600100440D5F61561C8F5D5F6C6D73B
:103A1000D77100F000304100BFB60130FF0ABFB4DB
:103A200001714AE6714BE2715AE6715BE2717AE527
:103A3000717BE1716AE6716BE2717AE6717BE2712A
:103A40002AE6712BE2717AE7717BE3710AD4710B7C
:103A5000D0711AD4711BD0712AD4712BD0714AEE57
:103A6000714AEA715AEE715AEA716AEE716AEA7144
:103A70007AEE717AEA717AEF717AEB710ADC710A87
:103A8000D8711ADC711AD8E6BF9001C9183F9CAFF3
:103A9000B801085CFE08BFB801AFBA01085CFE08B7
:103AA000BFBA01300904BF9201C91A803EAFBE01FE
:103AB000086C0208BFBE01AFBC01085CFD08BFBCBA
:103AC00001AFB801085CFD08BFB801AFBA01086CCE
:103AD0000208BFBA01300904BF9401CB64803EAF35
:103AE000BE01086C0408BFBE01AFBC01085CFB0846
:103AF000BFBC01AFB801085CFB08BFB801AFBA0199
:103B0000086C0408BFBA01300904BF9601CB668077
:103B10003EAFBE01086C0808BFBE01AFBC01085C27
:103B2000F708BFBC01AFB801085CF708BFB801AF28
:103B3000BA01086C0808BFBA01300904BF9801CB6C
:103B400068803EAFBE01086C1008BFBE01AFBC016B
:103B5000085CEF08BFBC01AFB801085CEF08BFB854
:103B600001AFBA01086C1008BFBA0130CC82BF9A0D
:103B700001AFBE01085CDF08BFBE01AFBC01085C3D
:103B8000DF08BFBC01AFB801085CDF08BFB801AFF8
:103B9000BA01085CDF08BFBA018F71006C209F7109
:103BA0000030CC82BF9C01AFBE01085CBF08BFBE25
:103BB00001AFBC01085CBF08BFBC01AFB801085C25
:103BC000BF08BFB801AFBA01085CBF08BFBA018F18
:103BD00071006C409F71005A01BF8E215CBF9E2115
:103BE0005A017F8E215C7F9E215A03FD8E235CFD4E
:103BF0009E235A04FB8E245CFB9E248E206C209E08
:103C0000208E206C409E20D7714BE2714BE6715B99
:103C1000E2715BE6716BE2716BE6717BE2717BE6F0
:103C2000717BE3717BE7AFBA01086C1E08BFBA0174
:103C3000AFB201086C1F08BFB201D7AFB401086C66
:103C40001F08BFB401AFBA01085CE108BFBA017137
:103C50004AE6714BE2715AE6715BE2716AE6716B9A
:103C6000E2717AE6717BE2717AE7717BE3D7710BDF
:103C7000D0710BD4AFB201086C2008BFB201D7AF2E
:103C8000B401086C2008BFB401710AD4710BD0D7FD
:103C9000C7161714DBD8F6AFD6F6B933BA02C6D7B3
:103CA000711BD0711BD4AFB201086C4008BFB201C8
:103CB000D7AFB401086C4008BFB401711AD4711BAE
:103CC000D0D7C7161714DBDCF6AFDAF6B933BA0271
:103CD000C6D7C91A007DCB64007DCB66007DCB685A
:103CE000007D301027F7FC119B00C91AB036CB6459
:103CF000B036CB66B036CB68B036308813F7EC11EF
:103D00009B00C71617BDD8303200FD85016168DD04
:103D100003B7EFF0C6D7710B20711B20710200FCB6
:103D2000BF9A00711200ECBF9A00710B20711B202A
:103D3000711200710200FCBF9A00711300FCBF9A5F
:103D400000710300D7711B20711300710200FCBFCA
:103D50009A00711200ECBF9A00C716711B206671A1
:103D60008C711100710200FCBF9A00710300FCBF4E
:103D70009A00C6D7C7710200FCBF9A00711A20F1E1
:103D8000711400718976710300FCBF9A0017F1125B
:103D9000C6D7C716711B205700674C08DE23665C28
:103DA00080D1DD05711200EF0371130066311976C1
:103DB000710200FCBF9A00710300FCBF9A0087EFFC
:103DC000D8C6D7C75600711B20711200711A205730
:103DD00000674C08DE1D66311976710200FCBF9A3F
:103DE00000F171140071896166710300FCBF9A00D3
:103DF00087EFDE17F112C6D7C7C12004FBF8FFCC4E
:103E00000300FC2A3D008C043119318EFC923D00E8
:103E1000FC743D00626E039C038C0C318EFC923D61
:103E200000FC743D00F6BB8C0E318E12ABBDD81376
:103E3000FD7506DE1AAB6109101489318EFC923DC6
:103E400000FC743D00626E039C03617900EFD8FCB6
:103E5000453D008C03318E121006C6D7C7C1C1FB89
:103E6000F8FFCC0100FC2A3D008C023119318EFC98
:103E7000923D00FC743D00626E019C018C0A318E03
:103E8000FC923D00FC743D00FC2A3D008C0231197F
:103E90006C01318EFC923D00FC743D00626E019C11
:103EA000018C0CD1DD22FCC33D00AC0E1462998C58
:103EB0000C91DF07E6FC593D00EF05F6FC593D008B
:103EC00061790E61690CEFD9FC453D008C01318EA2
:103ED000121004C6D7C716C6D7C7161714F750084E
:103EE00089A54836F0A390DFF78F3CF09EFCAF3AEF
:103EF000F061CAF7C6D7C7C1C1FBF8FFD5FEF6DD32
:103F0000348C02D1DD05CC0102EF03CC010017A1F6
:103F1000C1E6C1EBDEF68A0F318EC1EBE0F68931E6
:103F20008EFCF83D001006D2DD04F7B3EF508C0193
:103F30009FEBF6EF48D5E4F6DF04F7B3EF408C02D1
:103F4000D1DD08D5EBF6DD03F7EF338C02D1DD05CB
:103F5000CC0101EF03CC010017A1C1E6C1EBDEF6F5
:103F60008A0F318EC1EBE0F689318EFCF83D0010EE
:103F700006D2DD04F7B3EF068C019FEBF6F71004D1
:103F8000C6D7C7C1FBF8FFCC0100EBE0F68A044EB0
:103F90000161D345EBDEF68A0B4E01DD37EBDEF631
:103FA0008A154E01DD2E17C1E6C18C01318EC1EBA1
:103FB000E0F689318EFC5C3E001006D2DD04F7B3DA
:103FC000EF188B318EC18C01318EC1309E21FC0ED9
:103FD000D7001004615901EFB1F7C0C6D7C7C1FBC4
:103FE000F8FFEBDEF68A0B4DDD08EBDEF68A154DA9
:103FF000DF04F7B3EF23EBE0F68A044D61C304F767
:10400000B3EF16AC08C1E6C18B318EC1EBE0F68987
:10401000318EFC5C3E001006F3C0C6D7C7C1200835
:10402000FBF8FFC71704020016F749AB219BA3A7B3
:104030005106614ADFF4C6CC028017040200C1E6D3
:10404000C1EBDEF68A12318EC1EBE0F689318EFCCF
:10405000F83D001006D2DD05F7B3EE99013064009B
:10406000F7FC119B00CC020017040200C1E6C1EB73
:10407000DEF68A12318EC1EBE0F689318EFCF83D16
:10408000001006D2DD05F7B3EE6B0117040200C184
:10409000300600C1EBDEF68A16318EC1EBE0F68900
:1040A000318EFC5C3E001006D2DD05F7B3EE460112
:1040B0008C075C013129728C055C013119616A72CF
:1040C0008C035C01616A9C01D1DD298C0191DF05C3
:1040D000E5EDF6EF1D8C014C02DF05F5EDF6EF6125
:1040E0008C01318EC130B121FC0ED700C0F7B3EE88
:1040F0000401EF4D17040200C1E6C1EBDEF68A03AE
:10410000318EC1EBE0F689318EFC5C3E001006D2A8
:10411000DD05F7B3EEDF008C025C0F9C01D1DF0CF4
:1041200030D721FC0ED700F7B3EECA008C014C0447
:10413000DF0C302422FC0ED700E5EDF6EF03F5EDA1
:10414000F6CFE4F6FFCFE2F6FFCFE3F6FFCFE5F6DA
:10415000FFF6B1BFE8F69FEAF69FECF6F6B1BF02B4
:10416000F7E5E6F6E5FCF6F5FDF6F5EFF6F5EEF625
:10417000300C00C1F6C130F0F6FCEBD6001004F5AF
:10418000FEF6F5FFF6F6BF00F730D007FCEE47006D
:10419000F643DD04F7B3EF5EE6A1FCA54800F64365
:1041A000DD04F7B3EF50302A00FC5E4900F643DD32
:1041B00004F7B3EF41303200FCF24900F643DD046E
:1041C000F7B3EF32F6FC9E4B00F643DD04F7B3EF96
:1041D00025F6614908DD06AC08FCD93E00FCC96241
:1041E00000300A00FCAF4A00F643DD04F7B3EF06E7
:1041F000F6FC1E4C00F7100AC6D7C7C1C1FBF8FF7A
:104200008C024C29DC05F7B3EEB7008C02D1DF330A
:10421000F6FCDE5100CC0000CC010717C1E6A1C1BD
:10422000EBDEF68A12318EC1EBE0F689318EFCF8B6
:104230003D001006D2DD05F7B3EE8600F5EEF6F789
:10424000EE7F00E6FCDE5100CC00208C0291DF0CFA
:10425000CC0100300500FC5E4900EF2E8C024C06BC
:10426000DE0CCC0101300500FC5E4900EF1C8C0225
:104270004C15DE0CCC0102300A00FC5E4900EF0A4E
:10428000CC0103301400FC5E49008C0131696C07DD
:104290009C0117C1E6A1C1EBDEF68A12318EC1EB9B
:1042A000E0F689318EFCF83D001006D2DD04F7B34C
:1042B000EF10CFE4F608F5E6F6E5EEF6F6FC9E4BD9
:1042C00000F71004C6D7C7C12006FBF8FF8FE4F63D
:1042D0005C70D1DF04F7B3EF4317C1300600C1EBC8
:1042E000DEF68A0C318EC1EBE0F689318EFC5C3E45
:1042F000001006D2DD04F7B3EF22AC06148C0131B6
:104300008EB9AC06148C03318EBA02AC06128C0541
:10431000318E780400F661490E61E8F71008C6D7BF
:10432000C7C12006FBF8FF8FE4F65C08D1DF04F775
:10433000B3EF4317C1300600C1EBDEF68A0D318EB4
:10434000C1EBE0F689318EFC5C3E001006D2DD0444
:10435000F7B3EF22AC06148C01318EB9AC06148C85
:1043600003318EBA02AC06128C05318E780400F649
:1043700061490E61E8F71008C6D7C7C12004FBF8F1
:10438000FFD5E4F6DF05F7B3EEBA0017040200C16B
:10439000E6A1C1EBDEF68A0E318EC1EBE0F6893183
:1043A0008EFC5C3E001006D2DD05F7B3EE96008C65
:1043B00003318EBBF661490C61F8EE8700AB123118
:1043C000FF33BDD813BDDAFD3D0AEBE0F6AA0812B3
:1043D00031FF33C1ADD8BDDCADDABDDEC0BDD81311
:1043E000BDDAFD3D0AADDCDAD8BDD833BDDCADDECB
:1043F000DADABDDA33FD0F09EBE0F6AA06F7C1AD54
:10440000D8BDDCADDABDDEC0BDD813BDDAFD3D0AD6
:10441000ADDCDAD8BDD833BDDCADDEDADABDDA33F7
:10442000FD3704C9DC0000300C42FDD507C9DC00B3
:1044300000308047FD0C03FD9A09AC0414ADD8B9D7
:10444000ADDABA02F71006C6D7C7C12018FBF8FFCD
:10445000F6614918DF05F7B3EE7C01AC1814AA0227
:1044600012A96168616B616ADF28AC18040400144A
:10447000AA0212A96168616B616ADF16AC180408B0
:104480000014AA0212A96168616B616ADF04F7EE89
:10449000450117041200C1300300C1C1EBE0F689E9
:1044A000318EFC5C3E001006D2DD05F7B3EE27012D
:1044B0008C12314A0C085C0F318EBB8C13314A0CC4
:1044C000085C0F318EBC028C14314A0C085C0F3131
:1044D0008EBC04AC1814A9BDD8AA02BDDAE1FD1047
:1044E00006AB044000BDDC31FFBDDEFD6002ADD88F
:1044F000BC0CAC1804040014A9BDD8AA02BDDAE1B2
:10450000FD1006AC02044000BDDC31FFBDDEFD60E5
:1045100002ADD8BC0EAC1804080014A9BDD8AA027C
:10452000BDDAE1FD1006AC04044000BDDC31FFBD86
:10453000DEFD6002ADD8BC1017041200C1300600C9
:10454000C1C1EBE0F689318EFC5C3E001006D2DD85
:1045500005F7B3EE81008C12318E318D086E130891
:10456000BC068C14318E318D086E1508BC088C1673
:10457000318E318D086E1708BC0AAC0C610906BC7F
:104580000CAC0E610908BC0EAC1061090ABC10AC81
:104590000C318FF1609C1251FF5E0C9C13AC0E31FC
:1045A0008FF1609C1451FF5E0E9C15AC10318FF1A1
:1045B000609C1651FF5E109C1717041200C1300654
:1045C00000C1C1EBE0F689318EFCF83D001006D247
:1045D000DD04F7B3EF01F7101AC6D7C7C1FBF8FF28
:1045E000D5E4F6DF05F7B3EED101CC010017A1C188
:1045F000E6C1EBDEF68A0F318EC1EBE0F689318E33
:10460000FCF83D001006D2DD05F7B3EEAD0117A1B1
:10461000C1E6C1EBDEF68A05318EC1EBE0F68931E9
:104620008EFCF83D001006D2DD05F7B3EE8C0117C5
:10463000A1C1E6C1EBDEF68A04318EC1EBE0F6895A
:10464000318EFCF83D001006D2DD05F7B3EE6B01AC
:10465000D5FEF661F8EEB300CC010C17A1C1E6C19E
:10466000EBDEF68A04318EC1EBE0F689318EFCF880
:104670003D001006D2DD05F7B3EE3F01303200F702
:10468000FC119B00CC01C08FE4F65C01D1DD068CEF
:10469000016C209C0117A1C1E6C1EBDEF68A043152
:1046A0008EC1EBE0F689318EFCF83D001006D2DDBC
:1046B00005F7B3EE0501D5EBF6DD05CC0102EF03FE
:1046C000CC010017A1C1E6C1EBDEF68A0F318EC125
:1046D000EBE0F689318EFCF83D001006D2DD05F7DF
:1046E000B3EED700CC010017A1C1E6C1EBDEF68A1C
:1046F00005318EC1EBE0F689318EFCF83D001006E5
:10470000D2DD05F7B3EEB300EEAF00CC010417A184
:10471000C1E6C1EBDEF68A04318EC1EBE0F68931E9
:104720008EFCF83D001006D2DD05F7B3EE8C00D507
:10473000ECF6DF088FE4F65C01D1DF05CC0140EF39
:1047400003CC016017A1C1E6C1EBDEF68A04318E0D
:10475000C1EBE0F689318EFCF83D001006D2DD0495
:10476000F7B3EF57303200F7FC119B00D5EBF6DDC5
:1047700005CC0101EF03CC010017A1C1E6C1EBDEBE
:10478000F68A0F318EC1EBE0F689318EFCF83D00E0
:104790001006D2DD04F7B3EF2234EAF6C5E6C1EB2A
:1047A000DEF68A05318EC1EBE0F689318EFCF83DEC
:1047B000001006D2DD04F7B3EF01F7C0C6D7C71665
:1047C0008FE2F6D1DD0B91DD0E91DD1191DD14EF5D
:1047D0001830FA00BBEF1430F401BBEF0E30E803E1
:1047E000BBEF0830D007BBEF02F6BBF7C6D7C7C197
:1047F000C1FBF8FFD5E4F6DF04F7B3EF63AC023298
:10480000FA0023DD0F23DD1124F401DD1124E80378
:10481000DD11EF14CC0100EF13CC0108EF0ECC0139
:1048200010EF09CC0118EF04F7B3EF348C01313AE3
:104830004FE2F6DF03F7EF2817A1C1E6C1EBDEF682
:104840008A06318EC1EBE0F689318EFCF83D00100E
:1048500006D2DD04F7B3EF088C01313A9FE2F6F798
:104860001004C6D7C7168FE3F6D1DD0B91DD0F918B
:10487000DD1391DD17EF1C1714CA0002EF1917148E
:10488000CA0004EF121714CA0008EF0B1714CA006D
:1048900010EF04F7B3EF0CD5EDF6DD0617148931F0
:1048A0001999F7C6D7C7C1C1FBF8FFD5E4F6DF04F5
:1048B000F7B3EF608C022C02DD0E2C02DD0F2C040E
:1048C000DD102C08DD11EF14CC0100EF13CC010832
:1048D000EF0ECC0110EF09CC0118EF04F7B3EF3461
:1048E0008C01313A4FE3F6DF03F7EF2817A1C1E659
:1048F000C1EBDEF68A07318EC1EBE0F689318EFC22
:10490000F83D001006D2DD04F7B3EF088C01313A10
:104910009FE3F6F71004C6D7C7168FE5F6D1DD3949
:1049200091DD1291DD1591DD1891DD1B91DD1E9158
:10493000DD2191EF2430BC00BBEF20306200BBEFE3
:104940001A302A00BBEF14301400BBEF0E300A00FF
:10495000BBEF08300500BBEF02F6BBF7C6D7C7C1F7
:10496000C1FBF8FFD5E4F6DF04F7B3EF6FAC024408
:10497000BC00DC05CC0101EF33AC02446200DC0575
:10498000CC0102EF27AC02442A00DC05CC0103EF86
:104990001BAC02441400DC05CC0104EF0FAC024454
:1049A0000A00DC05CC0105EF03CC01068FE5F64ECD
:1049B00001DF03F7EF2617A1C1E6C1EBDEF68A029D
:1049C000318EC1EBE0F689318EFCF83D001006D245
:1049D000DD04F7B3EF068C019FE5F6F71004C6D7A8
:1049E000C716D5FEF6DD04F7B3EF05AFE8F6BBF763
:1049F000C6D7C7C1C1FBF8FFD5E4F6DF05F7B3EEB4
:104A0000A000D5FEF6DD05F7B3EE9600D5EEF6DD97
:104A10001DF6614902DD12AC02442900DE0B8C0256
:104A2000318EFCFA4100F7EF79F6FCFA4100AC0256
:104A3000440400DE07300400BC02EF0CAC0244E981
:104A400003DC0530E803BC02C9D8E803AC02FDE38F
:104A500001B1609C0117A1C1E6C1EBDEF68A01310C
:104A60008EC1EBE0F689318EFCF83D001006D2DDF8
:104A700004F7B3EF2DE10E01318EC9D8E803FDC173
:104A800001BFE8F6AF02F7446400DE05AF02F7EFBE
:104A900003306400FCAF4A00AFE8F6311EFC5E490B
:104AA00000F71004C6D7C716AF02F7BBF7C6D7C7C3
:104AB000C1C1FBF8FFF6614902DD0FAFE8F66149BD
:104AC00002DC07AC02446500DC04F7B3EF3CAFE85E
:104AD000F6BDD8AC02FDE301B1609C0117A1C1E6AF
:104AE000C1EBDEF68A21318EC1EBE0F689318EFC16
:104AF000F83D001006D2DD04F7B3EF0E8C01817291
:104B0000AFE8F6FDD802BF02F7F71004C6D7C71604
:104B10008FE2F6D1DD0B91DD1391DD1B91DD25EFE9
:104B2000301714F6B9300343BA02EF291714F6B957
:104B3000308342BA02EF1E1714303333B9300342C8
:104B4000BA02EF111714303333B9308341BA02EF90
:104B500004F7B3EF01F7C6D7C7168FE3F6D1DD0B25
:104B600091DD0E91DD1191DD14EF18300040BBEFA7
:104B700016309C1FBBEF10300010BBEF0A3000084E
:104B8000BBEF04F7B3EF0CD5EDF6DD061714A93132
:104B90001EB9F7C6D7C7168FEAF69BF7C6D7C7C1A7
:104BA0002004FBF8FFF6BB8C045CFE9C04D5FEF6EB
:104BB000DD03F7EF4FD5E4F6DF04F7B3EF468FEAF6
:104BC000F69C038C045FE4F69FEAF64E04DD05F6DE
:104BD000B1BBEF02F6BB8C04D1DF05D5EEF6DD07E5
:104BE000E6FCF63E00EF05F6FCF63E008C04D1DD57
:104BF00011FCDB4500F643DD098C039FEAF6F7B3B1
:104C0000EF02AB121006C6D7C716D5E4F6DD0717BC
:104C100014CA0001EF051714CA0000F7C6D7C7C1B0
:104C2000C1FBF8FF8C025C70D1DD05CC0101EF0DFA
:104C30008C02D1DD05CC0100EF03CC014017A1C1EE
:104C4000E6C1EBDEF68A12318EC1EBE0F689318ED9
:104C5000FCF83D001006D2DD08F5E4F6F7B3EE07E8
:104C6000018C015CBF9FE6F6CC01008C025C40D158
:104C7000DF068C016C049C018C025C20D1DF068C69
:104C8000016C029C018C025C10D1DF068C016C016E
:104C90009C018C025C08D1DF068C016C389C0117EA
:104CA000A1C1E6C1EBDEF68A13318EC1EBE0F689D5
:104CB000318EFCF83D001006D2DD08F5E4F6F7B3BE
:104CC000EEA5008C02D1DD0B8C024C08DD05F6FC54
:104CD000DE510017C1E6C1EBDEF68A04318EC1EB6E
:104CE000E0F689318EFC5C3E001006D2DD04F7B39D
:104CF000EF768C025C01D1DD09CC01018B6C209B2D
:104D0000EF07CC01008B5CDF9BD5FEF6DD068B6CDC
:104D1000809BEF048B5C7F9B17A1C1E6C1EBDEF6A5
:104D20008A23318EC1EBE0F689318EFCF83D00100C
:104D300006D2DD04F7B3EF3017C1E6C1EBDEF68A29
:104D400004318EC1EBE0F689318EFCF83D0010068F
:104D5000D2DD04F7B3EF118C029FE4F6F5EEF630E6
:104D60003200F7FC119B00F71004C6D7C7C1C1FB86
:104D7000F8FFD5E4F6DF04F7B3EF2917C1E6A1C1C8
:104D8000EBDEF68A10318EC1EBE0F689318EFC5CE9
:104D90003E001006D2DD04F7B3EF09AC02148C011B
:104DA000318EB9F71004C6D7C7C12012FBF8FFCC6B
:104DB0000500F6BBD5FEF6DD05F7B3EEFD01AC1E32
:104DC00014CA0000D5E4F6DF05F7B3EEED01D5EA2D
:104DD000F6DF05F7B3EEE3018FEAF65C40D1DD06BE
:104DE0008C050C029C058FEAF65C20D1DD068C0553
:104DF0000C029C058FEAF65C10D1DD068C050C02D6
:104E00009C058FEAF65C08D1DD068C050C069C0536
:104E100017040600C1E6A1C1EBDEF68A0A318EC195
:104E2000EBE0F689318EFC5C3E001006D2DD05F722
:104E3000B3EE87018C07318EBC028C05318E12AC2B
:104E40000243DE04F7EE7301EBE0F6AA02311E61C5
:104E50004902DE3417040600C1E6C1EBDEF68A1112
:104E6000318EC1EBE0F689318EFC5C3E001006D23B
:104E7000DD05F7B3EE44018C065C10D1DD0AFCDBE6
:104E8000450032FEFFEE330117040600C18C0531E8
:104E90008EC1EBDEF68A0B318EC1EBE0F689318EE6
:104EA000FC5C3E001006D2DD05F7B3EE0D018C056B
:104EB00072AC02FDD802B112AC20146299AC1E147F
:104EC000CA00008C05318E614900DD598FEAF65C1D
:104ED00008D1DD51AB07040600ABA107040600149E
:104EE0008972AC1A14F313B9ABA1A107040600AB85
:104EF00004030007040600148972AC1A1413BA02E2
:104F0000AB04040007040600AB0405000704060018
:104F1000148972AC1A1413BA04AC1E14896C089963
:104F2000AB040600BB8C05318E614900DD278FEA9A
:104F3000F65C40D1DD1FAB07040600ABA1070406F9
:104F400000148972AC1214F313B9AC1E14896C40AE
:104F500099ABA1A1BB8C05318E614900DD298FEA97
:104F6000F65C20D1DD21AB07040600ABA1070406E7
:104F700000148972AC12A1A114F313B9AC1E1489E8
:104F80006C2099ABA1A1BB8C05318E614900DD2A53
:104F90008FEAF65C10D1DD22AB07040600ABA10757
:104FA000040600148972AC1204040014F313B9ACA3
:104FB0001E14896C1099ABA1A1BBF71014C6D7C7FA
:104FC000C12004FBF8FFD5FEF6DF05F7B3EEBB000A
:104FD000D5E4F6DF05F7B3EEB10017040200C1E631
:104FE000A1C1EBDEF68A0A318EC1EBE0F689318E83
:104FF000FC5C3E001006D2DD05F7B3EE8D008C029E
:10500000318E318D080E03081C00BB614904DE0A95
:10501000AC0E14CA0000F7B3EF71EBE0F6AA023150
:105020001E614900DE3217040200C1E6C1EBDEF664
:105030008A11318EC1EBE0F689318EFC5C3E0010A6
:1050400006D2DD04F7B3EF438C025C10D1DD09FC1E
:10505000DB450032FEFFEF33AC0CC18C04318EC156
:10506000EBDEF68A0B318EC1EBE0F689318EFC5C0B
:105070003E001006D2DD04F7B3EF10ABBDD8AC0490
:10508000FDE301B112AC0E146299F71006C6D7C742
:10509000C1C1FBF8FF8FECF64E02DF04F7EE3101E1
:1050A0008C02D161F8EE8D0017A1C1E6C1EBDEF6EE
:1050B0008A04318EC1EBE0F689318EFC5C3E001033
:1050C00006D2DD05F7B3EE08018C015CDF9C011709
:1050D000A1C1E6C1EBDEF68A04318EC1EBE0F689B0
:1050E000318EFCF83D001006D2DD05F7B3EEE1008D
:1050F000300300F7FC119B00CC0102D5FCF6DD0665
:105100008C016C809C01D5FDF6DD068C016C309C19
:105110000117A1C1E6C1EBDEF68A14318EC1EBE0C6
:10512000F689318EFCF83D001006D2DD05F7B3EEAE
:105130009F00EE960017A1C1E6C1EBDEF68A0431AE
:105140008EC1EBE0F689318EFC5C3E001006D2DDAC
:1051500004F7B3EF7C8FE4F65C01D1DD088C016CC1
:10516000209C01EF068C015CDF9C0117A1C1E6C108
:10517000EBDEF68A04318EC1EBE0F689318EFCF865
:105180003D001006D2DD04F7B3EF46300300F7FC14
:10519000119B00D5FCF6DD05CC0180EF03CC0100AE
:1051A000D5FDF6DD068C016C309C0117A1C1E6C16E
:1051B000EBDEF68A14318EC1EBE0F689318EFCF815
:1051C0003D001006D2DD04F7B3EF068C029FECF62B
:1051D000F71004C6D7C716669FFCF6F7C6D7C7C137
:1051E000C1FBF8FF8FFDF64E02DF03F7EF498C029B
:1051F000D1DD05CC0130EF03CC0100D5ECF6DD06A6
:105200008C016C029C01D5FCF6DD068C016C809C47
:105210000117A1C1E6C1EBDEF68A14318EC1EBE0C5
:10522000F689318EFCF83D001006D2DD04F7B3EFAD
:10523000068C029FFDF6F71004C6D7C7C12008FBF5
:10524000F8FF17040400C1300400C1500DC1EBE0A9
:10525000F689318EFC5C3E001006D2DD0632070076
:10526000EE99008C045CE0313A728C075C30314A74
:105270006162629C018C055CE0313A728C075C0CC7
:10528000312A6162629C028C065CE0313A728C07C2
:105290005C036162629C03CC00008B4C03DE5C8B80
:1052A000318E07A11489D1DF0E8BF0316E610908B0
:1052B00014F6B9BA02EF3F8BF0316E610908143071
:1052C0007B14B930AE3EBA028B318E07A11489919E
:1052D00099D1DD228BF0316E61090814A9BDD8AADD
:1052E00002BDDAC9DC1D5A30843FFD0C03ADD8B9CC
:1052F000ADDABA02EFD2615900EF9FF7100AC6D7B4
:10530000C7C12018FBF8FFF6BC1417040800FC3BCB
:105310005200F6BC16AC1644030071FE61C8EE1CC8
:1053200001AC16312D61091814A9BDD8AA02BDDA45
:10533000AC16312D61092014A9BDDCAA02BDDEFD29
:10534000FE05ADD8FCAAD6001331FF33BDD813BD7E
:10535000DAFD3D0AC9DC0000308047FD3704ADDAD4
:10536000BC06ADD8BC04AC16312D07040800127978
:105370000000BDD8790200BDDAF6BDDCFD4F09DDC5
:1053800079AC16312D0704080014A9BDDCAA02BDB2
:10539000DEAC04BDD8AC06BDDAADDEFD3704C9DC39
:1053A000000030803FFD0F09ADDABC02ADD8BBF67E
:1053B000BDD8BDDAABBDDCAC02FD4F09DE06AC02E8
:1053C00012ABEF0EABBDD8AC02BDDAFD2309DADAC1
:1053D000ADD8BDD813BDDAAF9A21BDDCAF9C21FD9D
:1053E0004F0961D3528C1672E6D2DD040192DFFCC4
:1053F0006E15086E1408BC14EF3DAC04BDD8AC06A5
:10540000BDDAAF9221BDDCAF9421FD4F09DC15AFB1
:105410009621BDD8AF9821BDDAAC04BDDCAC06FD49
:105420004F09DE138C1672E6D2DD040192DFFC6EAA
:1054300015086E1408BC14617916EED8FEAC14126F
:10544000101AC6D7C7C12014FBF8FFF6BC1017040A
:105450000D00C1300300C1500DC1EBE0F689318E63
:10546000FC5C3E001006D2DD06320700EE76018CB1
:105470000D5C1F9C0D8C0E5C1F9C0E8C0F5C1F9C8A
:105480000FF6BC12AC1244030071FE61C8EE52016B
:10549000AC12312D61091414A9BDD8AA02BDDAAC31
:1054A00012312D61091C14A9BDDCAA02BDDEFDFE6E
:1054B00005ADD8FCAAD6001331FF33BDD813BDDA31
:1054C000FD3D0AC9DC0000308047FD3704ADDABC81
:1054D00006ADD8BC04AC1207040D001489D161F8E4
:1054E000EEBC00AF7621BDD8AF7821BDDAFD530AFE
:1054F000ADD8BDDCADDAC9D800B0C9DA4C45FD374E
:1055000004ADDABC0AADD8BC08AC1207040D001417
:10551000899199D1DD1CAC08BDD8AC0ABDDAC9DCD3
:1055200054E330853FFD0C03ADDABC0AADD8BC08AE
:10553000EFD7AC04BDD8AC06BDDAAC08BDDCAC0A14
:10554000FD3704C9DC000030803FFD0F09ADDABC37
:1055500002ADD8BBF6BDD8BDDAABBDDCAC02FD4FA9
:1055600009DE06AC0212ABEF0EABBDD8AC02BDDA61
:10557000FD2309DADAADD8BDD813BDDAAF8E21BD6F
:10558000DCAF9021FD4F0961D3528C1272E6D2DD5F
:10559000040192DFFC6E11086E1008BC10EF3DACE8
:1055A00004BDD8AC06BDDAAF8621BDDCAF8821FDD5
:1055B0004F09DC15AF8A21BDD8AF8C21BDDAAC0410
:1055C000BDDCAC06FD4F09DE138C1272E6D2DD04A1
:1055D0000192DFFC6E11086E1008BC10617912EEAA
:1055E000A2FEAC10121016C6D7C7200EFBF8FFCCD7
:1055F000070A300700F7BC0233BC04E6FC8F5000FA
:10560000CC080017040800C1E6C1500AC1D904F74C
:10561000FCF83D001006D2DD06320700EE2801CC72
:10562000084017040800C1E6C1500CC1D904F7FCBA
:10563000F83D001006D261E8EED800CC0808170447
:105640000800C1E6C1500AC1D904F7FCF83D0010BA
:1056500006D261E8EEBC00300A00F7FC119B00178F
:10566000040800C1E6C1A1C1D904F7FC5C3E0010EA
:1056700006D261E8EE9C008C085C01D1DF0961690B
:10568000078C0781D1DFD08C085C01D161F8EE82F4
:105690000017040800C1300600C15003C1D904F747
:1056A000FC5C3E001006D2DF6AF6BC02BC046E0849
:1056B00008BB44650071FEDE08AB7C80449C7FDE45
:1056C0000EAC0412AC02086C0108BC0233BC04F638
:1056D0006E0A08BB44650071FEDE08AB7C80449C0A
:1056E0007FDE0EAC0412AC02086C0208BC0233BCB4
:1056F00004F66E0C08BB7C8044D57EDE08AB7C8053
:1057000044187CDE0EAC0412AC02086C0408BC0227
:1057100033BC04CC080017040800C1E6C1500CC11A
:10572000D904F7FCF83D001006CC08001704080067
:10573000C1E6C1500AC1D904F7FCF83D001006F6D5
:10574000FC8F5000AC0212100EC6D7C7C1201CFB44
:10575000F8FFCC1001CC110017041000C1E6A1C164
:10576000EBDEF68A12318EC1EBE0F689318EFCF861
:105770003D001006D2DD05F7B3EEFD0630C800F798
:10578000FC119B00CC100017041000C1E6C1EBDE39
:10579000F68A0F318EC1EBE0F689318EFCF83D00C0
:1057A0001006D2DD05F7B3EECF0617041000C1E6F0
:1057B000C1EBDEF68A05318EC1EBE0F689318EFC55
:1057C000F83D001006D2DD05F7B3EEAC0617041065
:1057D00000C1E6C1EBDEF68A12318EC1EBE0F6893C
:1057E000318EFCF83D001006D2DD05F7B3EE8906D8
:1057F00017041000C1E6C1EBDEF68A17318EC1EB4B
:10580000E0F689318EFCF83D001006D2DD05F7B3D5
:10581000EE660617041000C1E6C1EBDEF68A04311D
:105820008EC1EBE0F689318EFCF83D001006D2DD2A
:1058300005F7B3EE4306CC100C17041000C1E6C107
:10584000EBDEF68A04318EC1EBE0F689318EFCF88E
:105850003D001006D2DD05F7B3EE1D06300F00F750
:10586000FC119B00EB0CF78A099C1017041000C177
:10587000E6C1EBDEF68A02318EC1EBE0F689318EAD
:10588000FCF83D001006D2DD05F7B3EEEB05EB0C9E
:10589000F78A089C1017041000C1E6C1EBDEF68AF7
:1058A00001318EC1EBE0F689318EFCF83D00100627
:1058B000D2DD05F7B3EEC1058C26D1DD0BEB0CF77D
:1058C0008A0A6CE09C10EF07EB0CF78A0A9C101711
:1058D000041000C1E6C1EBDEF68A06318EC1EBE0B2
:1058E000F689318EFCF83D001006D2DD05F7B3EEE7
:1058F00087058C26D1DD0BEB0CF78A0B6CE09C1036
:10590000EF058F81219C1017041000C1E6C1EBDE6A
:10591000F68A07318EC1EBE0F689318EFCF83D0046
:105920001006D2DD05F7B3EE4F058C26D1DD083029
:10593000C800F7FC119B00CC104017041000C1E612
:10594000C1EBDEF68A04318EC1EBE0F689318EFCC4
:10595000F83D001006D2DD05F7B3EE1C05CC10783B
:1059600017041000C1E6C1EBDEF68A05318EC1EBEB
:10597000E0F689318EFCF83D001006D2DD05F7B364
:10598000EEF604AF8221F7FC119B00CC1000170447
:105990001000C1E6C1EBDEF68A05318EC1EBE0F600
:1059A00089318EFCF83D001006D2DD05F7B3EEC854
:1059B0000417041000C1E6A1C1EBDEF68A0A318E9D
:1059C000C1EBE0F689318EFC5C3E001006D2DD05AD
:1059D000F7B3EEA4048C11318EBC0C520CFDD8022E
:1059E000609C0FAC1C04080014F612B933BA02C153
:1059F000C3AC1C04040014C2C033B933BA02C1C31F
:105A0000AC1C14C2C033B933BA02AC24040800146D
:105A1000F612B933BA02C1C3AC2404040014C2C0E4
:105A200033B933BA02C1C3AC2414C2C033B933BAD8
:105A300002CC0E008C0E4E0F61C8EE6101170410EF
:105A400000C1300C00C1EBDEF68A0B318EC1EBE0F9
:105A5000F689318EFC5C3E001006D2DD05F7B3EE10
:105A600017048C10318E318D086E1108BC068C1213
:105A7000318E318D086E1308BC088C14318E318D37
:105A8000086E1508BC0AAC06BDD831FFBDDAAC24DF
:105A900014ADD8BDDCADDABDDEA9BDD8AA02BDDA31
:105AA000ADDEFDEF05ADD8B9ADDABA02AC08BDD8B0
:105AB00031FFBDDAAC2404040014ADD8BDDCADDA8E
:105AC000BDDEA9BDD8AA02BDDAADDEFDEF05ADD8B9
:105AD000B9ADDABA02AC0ABDD831FFBDDAAC2404E4
:105AE000080014ADD8BDDCADDABDDEA9BDD8AA0270
:105AF000BDDAADDEFDEF05ADD8B9ADDABA028C1670
:105B0000318E318D086E1708BB8C18318E318D089F
:105B10006E1908BC028C1A318E318D086E1B08BCC0
:105B200004ABBDD831FFBDDAAC1C14ADD8BDDCADC3
:105B3000DABDDEA9BDD8AA02BDDAADDEFDEF05AD46
:105B4000D8B9ADDABA02AC02BDD831FFBDDAAC1CAF
:105B500004040014ADD8BDDCADDABDDEA9BDD8AA01
:105B600002BDDAADDEFDEF05ADD8B9ADDABA02ACF3
:105B700004BDD831FFBDDAAC1C04080014ADD8BD9B
:105B8000DCADDABDDEA9BDD8AA02BDDAADDEFDEF1F
:105B900005ADD8B9ADDABA0261590EEE96FEAC1C6D
:105BA00014A9BDD8AA02BDDAFD3D0AC9DC00003047
:105BB0008047FD0C03ADD8BDDCADDABDDEAF76218C
:105BC000BDD8AF7821BDDAFD530AADDCDAD8BDD837
:105BD00033BDDCADDEDADABDDA33FD37048C0F31EC
:105BE0008EF7C1ADD8BDDCADDABDDEC0BDD813BD0A
:105BF000DAFD3D0AADDCDAD8BDD833BDDCADDEDA86
:105C0000DABDDA33FD3704FD9A09ADD8B9ADDABA99
:105C100002AC1C04040014A9BDD8AA02BDDAFD3DE3
:105C20000AC9DC0000308047FD0C03ADD8BDDCADF7
:105C3000DABDDEAF7621BDD8AF7821BDDAFD530ADB
:105C4000ADDCDAD8BDD833BDDCADDEDADABDDA33AF
:105C5000FD37048C0F318EF7C1ADD8BDDCADDABD98
:105C6000DEC0BDD813BDDAFD3D0AADDCDAD8BDD843
:105C700033BDDCADDEDADABDDA33FD3704FD9A0977
:105C8000ADD8B9ADDABA02AC1C04080014A9BDD86D
:105C9000AA02BDDAFD3D0AC9DC0000308047FD0CD8
:105CA00003ADD8BDDCADDABDDEAF7621BDD8AF78AF
:105CB00021BDDAFD530AADDCDAD8BDD833BDDCAD89
:105CC000DEDADABDDA33FD37048C0F318EF7C1AD81
:105CD000D8BDDCADDABDDEC0BDD813BDDAFD3D0AEE
:105CE000ADDCDAD8BDD833BDDCADDEDADABDDA330F
:105CF000FD3704FD9A09ADD8B9ADDABA02AC241467
:105D0000A9BDD8AA02BDDAFD3D0AC9DC0000308079
:105D100047FD0C03ADD8BDDCADDABDDEAF7A21BDE9
:105D2000D8AF7C21BDDAFD530AADDCDAD8BDD8335B
:105D3000BDDCADDEDADABDDA33FD37048C0F318E2F
:105D4000F7C1ADD8BDDCADDABDDEC0BDD813BDDA5C
:105D5000FD3D0AADDCDAD8BDD833BDDCADDEDADA24
:105D6000BDDA33FD3704FD9A09ADD8B9ADDABA0210
:105D7000AC2404040014A9BDD8AA02BDDAFD3D0A72
:105D8000C9DC0000308047FD0C03ADD8BDDCADDAC6
:105D9000BDDEAF7A21BDD8AF7C21BDDAFD530AAD9F
:105DA000DCDAD8BDD833BDDCADDEDADABDDA33FDFE
:105DB00037048C0F318EF7C1ADD8BDDCADDABDDE56
:105DC000C0BDD813BDDAFD3D0AADDCDAD8BDD8338D
:105DD000BDDCADDEDADABDDA33FD3704FD9A09AD9C
:105DE000D8B9ADDABA02AC2404080014A9BDD8AA07
:105DF00002BDDAFD3D0AC9DC0000308047FD0C031E
:105E0000ADD8BDDCADDABDDEAF7A21BDD8AF7C2127
:105E1000BDDAFD530AADDCDAD8BDD833BDDCADDE6A
:105E2000DADABDDA33FD37048C0F318EF7C1ADD825
:105E3000BDDCADDABDDEC0BDD813BDDAFD3D0AADB7
:105E4000DCDAD8BDD833BDDCADDEDADABDDA33FD5D
:105E50003704FD9A09ADD8B9ADDABA02AC2404080A
:105E60000014A9BDD8AA02BDDAC9DC0000E6FDFE17
:105E700005ADD8B9ADDABA02F7101EC6D7C7C12032
:105E800032FBF8FFCC3102D5FEF6DD0AF6FC4262A9
:105E900000CC0101EF03CC010017040600FCBE4753
:105EA0000017040B00FC64480017040200FC1849AA
:105EB0000017040400FCE049008FE4F69C09170475
:105EC0000A00FC954B00F6BC10BC128C319DDCF432
:105ED000DDF6BDDEAC10BDD8AC12BDDAADDEFD81A5
:105EE00006DE1FF6C1AC3AC1AC32FC4B57001004C1
:105EF000F643DD0E617910F6614910DFCE6179124B
:105F0000EFC98C319DDCF4DDF6BDDEAC1246DEACB3
:105F10001061F846DCDF08F6BC0CBC0EEEBD00F6E6
:105F2000BC10BC128C319DDCF4DDF6BDDEAC10BDC6
:105F3000D8AC12BDDAADDEFD8106DE23E6C1170462
:105F40001800C117042400FC4B57001004F643DD71
:105F50000E617910F6614910DFCA617912EFC58CC4
:105F6000319DDCF4DDF6BDDEAC1246DEAC1061F82E
:105F700046DCDF07F6BC0CBC0EEF6117041800C14D
:105F8000AC3AFC005300C0629C1717042400C1AC5B
:105F900032FC445400C0629C16F6BC0CBC0E8C163D
:105FA000D1DF0EAC0E12AC0C086C0108BC0C33BC7B
:105FB0000E8C17D1DF0EAC0E12AC0C086C0208BCB4
:105FC0000C33BC0EFCE95500629C15D1DF0EAC0E03
:105FD00012AC0C086C0408BC0C33BC0ECFE2F6FF0C
:105FE000CFE3F6FFCFE5F6FFF6B1BFE8F69FE4F6A4
:105FF0009FEAF6E5E6F6AC06FCEE47008C0B318E28
:10600000FCA54800AC02FC5E4900AC04FCF249006F
:106010008C09318EFC1E4C008C0A318EFC9E4B008C
:106020008C01D1DD05E6FC426200AC0C121034C6D6
:10603000D7C7C1C1FBF8FFF661490CDF04F7B3EF26
:106040006CD5E4F6DF04F7B3EF63AC029B51FF5E5F
:10605000029C018C0A0E01708C0B1C0012EBE0F606
:10606000AA0A43DE04F7B3EF4417C1E6A1C1EBDE91
:10607000F68A18318EC1EBE0F689318EFCF83D00CE
:106080001006D2DD04F7B3EF24AC0CC18C0A318EBC
:10609000C1EBDEF68A15318EC1EBE0F689318EFC5C
:1060A000F83D001006D2DD04F7B3EF01F71004C687
:1060B000D7C7C1C1FBF8FFF661490CDF04F7B3EFA6
:1060C0006CD5E4F6DF04F7B3EF63AC029B51FF5EDF
:1060D000029C018C0A0E01708C0B1C0012EBE0F686
:1060E000AA0A43DE04F7B3EF4417C1E6A1C1EBDE11
:1060F000F68A18318EC1EBE0F689318EFCF83D004E
:106100001006D2DD04F7B3EF24AC0CC18C0A318E3B
:10611000C1EBDEF68A15318EC1EBE0F689318EFCDB
:106120005C3E001006D2DD04F7B3EF01F71004C6A1
:10613000D7C7C12016FBF8FFD5FFF6DD05F7B3EE94
:10614000FC00F661491EDF05F7B3EEF100F6BC1462
:10615000AC1461491661C8EEB200AC166129144452
